{
  "_format": "hh-sol-artifact-1",
  "contractName": "Storage",
  "sourceName": "contracts/faucet.sol",
  "abi": [
    {
      "inputs": [
        {
          "internalType": "uint256",
          "name": "_x1",
          "type": "uint256"
        },
        {
          "internalType": "uint256",
          "name": "_x2",
          "type": "uint256"
        },
        {
          "internalType": "uint256",
          "name": "_y1",
          "type": "uint256"
        },
        {
          "internalType": "uint256",
          "name": "_y2",
          "type": "uint256"
        }
      ],
      "name": "draw",
      "outputs": [],
      "stateMutability": "nonpayable",
      "type": "function"
    },
    {
      "inputs": [
        {
          "internalType": "uint256",
          "name": "index",
          "type": "uint256"
        }
      ],
      "name": "returnStruct",
      "outputs": [
        {
          "components": [
            {
              "internalType": "address",
              "name": "addressOfPainter",
              "type": "address"
            },
            {
              "internalType": "uint256",
              "name": "x1",
              "type": "uint256"
            },
            {
              "internalType": "uint256",
              "name": "x2",
              "type": "uint256"
            },
            {
              "internalType": "uint256",
              "name": "y1",
              "type": "uint256"
            },
            {
              "internalType": "uint256",
              "name": "y2",
              "type": "uint256"
            }
          ],
          "internalType": "struct Storage.Line",
          "name": "",
          "type": "tuple"
        }
      ],
      "stateMutability": "view",
      "type": "function"
    }
  ],
  "bytecode": "0x608060405234801561001057600080fd5b50610456806100206000396000f3fe608060405234801561001057600080fd5b50600436106100365760003560e01c80634856684a1461003b578063ad204ef81461006b575b600080fd5b610055600480360381019061005091906102a0565b610087565b60405161006291906103b2565b60405180910390f35b610085600480360381019061008091906102c9565b610167565b005b61008f610246565b600082815481106100c9577f4e487b7100000000000000000000000000000000000000000000000000000000600052603260045260246000fd5b90600052602060002090600502016040518060a00160405290816000820160009054906101000a900473ffffffffffffffffffffffffffffffffffffffff1673ffffffffffffffffffffffffffffffffffffffff1673ffffffffffffffffffffffffffffffffffffffff1681526020016001820154815260200160028201548152602001600382015481526020016004820154815250509050919050565b60006040518060a001604052803373ffffffffffffffffffffffffffffffffffffffff16815260200186815260200185815260200184815260200183815250908060018154018082558091505060019003906000526020600020906005020160009091909190915060008201518160000160006101000a81548173ffffffffffffffffffffffffffffffffffffffff021916908373ffffffffffffffffffffffffffffffffffffffff16021790555060208201518160010155604082015181600201556060820151816003015560808201518160040155505050505050565b6040518060a00160405280600073ffffffffffffffffffffffffffffffffffffffff168152602001600081526020016000815260200160008152602001600081525090565b60008135905061029a81610409565b92915050565b6000602082840312156102b257600080fd5b60006102c08482850161028b565b91505092915050565b600080600080608085870312156102df57600080fd5b60006102ed8782880161028b565b94505060206102fe8782880161028b565b935050604061030f8782880161028b565b92505060606103208782880161028b565b91505092959194509250565b610335816103cd565b82525050565b60a082016000820151610351600085018261032c565b50602082015161036460208501826103a3565b50604082015161037760408501826103a3565b50606082015161038a60608501826103a3565b50608082015161039d60808501826103a3565b50505050565b6103ac816103ff565b82525050565b600060a0820190506103c7600083018461033b565b92915050565b60006103d8826103df565b9050919050565b600073ffffffffffffffffffffffffffffffffffffffff82169050919050565b6000819050919050565b610412816103ff565b811461041d57600080fd5b5056fea26469706673582212204f1df2fb1f9fd647fdc97a63a177f08a273a88f7d301b0d00ae4bc5d8e4399dc64736f6c63430008040033",
  "linkReferences": {},
  "deployedLinkReferences": {}
}